:100000000C9432000C943C000C943C000C943C008A
:100010000C943C000C943C000C943C000C943C0070
:100020000C943C000C943C000C943C000C943C0060
:100030000C943C000C943C000C943C000C943C0050
:100040000C943C000C943C000C943C000C943C0040
:100050000C943C00560058005B005E006100640098
:1000600067006A0011241FBECFE5D8E0DEBFCDBF18
:100070000E9487000C9499000C940000E82F8111D5
:1000800005C080B7877F80BF18B826C0379880B773
:10009000886080BF18B88E2F90E0FC013197E8305F
:1000A000F105D0F4E65DFF4F0C94930017B814C02F
:1000B00081E087B911C082E087B90EC083E087B9BB
:1000C0000BC084E087B908C085E087B905C086E029
:1000D00087B902C087E087B9693079F0439A6B30FD
:1000E00039F06C3041F06A3041F44098419805C0D5
:1000F0004098419A02C083E088B9442311F0429AA3
:1001000001C0429888B185FB882780F90895D09A6C
:1001100040E069E081E00E943E00882311F0D89A17
:10012000F7CFD898F5CFEE0FFF1F0590F491E02D93
:060130000994F894FFCFD2
:00000001FF
