:100000000C942A000C9447000C9447000C94470071
:100010000C9447000C9447000C9447000C94470044
:100020000C9447000C9447000C9447000C94470034
:100030000C9447000C9447000C9447000C94470024
:100040000C9447000C9447000C9447000C94470014
:100050000C94470011241FBECFE5D8E0DEBFCDBF12
:1000600010E0A0E6B0E0EEE5F2E002C005900D92EF
:10007000AC38B107D9F720E0ACE8B0E001C01D9280
:10008000AE38B207E1F70E94E6000C942D010C9403
:10009000000082B38F70962F907F892B82BB90983F
:1000A000919A0000919882E48A95F1F700C082B39A
:1000B0008F7090E1699FB0011124682B62BB919A07
:1000C0000000919883EF91E00197F1F700C00000E4
:1000D000089582B38F70962F907F892B82BB909A60
:1000E000919A0000919882E48A95F1F700C082B35A
:1000F0008F7090E1699FB0011124682B62BB919AC7
:100100000000919883EF91E00197F1F700C00000A3
:100110000895CF93DF93EC018FEF81BB87E893E1E4
:100120000197F1F700C0000062E0CE010E94490093
:1001300068E2CE010E9449006CE0CE010E944900B5
:1001400066E0CE010E94490061E0CE010E944900B4
:1001500083EF91E00197F1F700C00000DF91CF91AC
:100160000895EF92FF920F931F93CF93DF93EB01CC
:100170006881662369F07C01219600E010E0C701E8
:100180000E9469000F5F1F4F69916111F8CF02C093
:1001900000E010E0802FDF91CF911F910F91FF9031
:1001A000EF900895611108C0403178F44F70642FCA
:1001B00060680E9449000895613039F4403128F4A4
:1001C0004F70642F606C0E94490008958DE890E0A4
:1001D0000E9489008CE890E00E94260160E670E0B1
:1001E0008DE890E00E94B10060EC8DE890E00E9404
:1001F00049006DE670E08DE890E00E94B1008CE867
:1002000090E00E942001C82F6DE770E08DE890E03B
:100210000E94B10042E0480F61E08DE890E00E944A
:10022000D2006C2F8DE890E00E9469002FE986E8EB
:1002300091E0215080409040E1F700C00000DFCF06
:100240008FEF8FB9779BFECF8FB1089587B38F74EF
:0E02500087BBBE9A80E48DB90895F894FFCF65
:10025E00536C61766520446576696365005265630B
:10026E00656976656420446174613A200052656365
:0C027E00656976656420646174610000AD
:00000001FF
