S011000049324320536C6176652E737265633A
S11300000C942A000C9447000C9447000C9447006D
S11300100C9447000C9447000C9447000C94470040
S11300200C9447000C9447000C9447000C94470030
S11300300C9447000C9447000C9447000C94470020
S11300400C9447000C9447000C9447000C94470010
S11300500C94470011241FBECFE5D8E0DEBFCDBF0E
S113006010E0A0E6B0E0E2ECF2E002C005900D92F0
S1130070A837B107D9F720E0A8E7B0E001C01D9286
S1130080AA37B207E1F70E942B010C945F010C948C
S1130090000062B984EC86BF089506B607FEFDCF62
S11300A081B1982F987F807F803641F0983A41F053
S11300B0903B41F0803789F782E0089580E008950D
S11300C081E0089581E0089584EC86BF06B607FEBA
S11300D0FDCF81B1982F987E903811F483B10895A3
S11300E0983811F483B10895887F803A29F486B74B
S11300F0806886BF8FEF08958EEF089588B38F7060
S1130100962F907F892B88BBC098C19A82E08A95EC
S1130110F1F700C0C1988FE891E00197F1F700C0B2
S1130120000088B38F7090E1699FB0011124682B9F
S113013068BBC19A82E08A95F1F700C0C1988FE943
S11301409FE00197F1F700C00000089588B38F7015
S1130150962F907F892B88BBC09AC19A82E08A959A
S1130160F1F700C0C1988FE891E00197F1F700C062
S1130170000088B38F7090E1699FB0011124682B4F
S113018068BBC19A82E08A95F1F700C0C1988FE9F3
S11301909FE00197F1F700C000000895CF93DF932B
S11301A0EC018FEF87BB8FE39CE90197F1F700C067
S11301B0000062E0CE010E947E0068E2CE010E944F
S11301C07E006CE0CE010E947E0066E0CE010E94BB
S11301D07E0061E0CE010E947E008FE99FE00197DE
S11301E0F1F700C00000DF91CF910895EF92FF92E4
S11301F00F931F93CF93DF93EB016881662369F01C
S11302007C01219600E010E0C7010E94A6000F5F68
S11302101F4F69916111F8CF02C000E010E0802FF8
S1130220DF91CF911F910F91FF90EF90089561118D
S113023008C0403178F44F70642F60680E947E00DB
S11302400895613039F4403128F44F70642F606CA4
S11302500E947E00089589E790E00E94CE0060E647
S113026070E089E790E00E94F60060EC89E790E096
S11302700E947E006DE670E089E790E00E94F6003F
S11302804AE061E089E790E00E94170161E188E7B4
S113029090E00E94490088E790E00E944D0088E7C2
S11302A090E00E946400682F89E790E00E94A60015
S11302B08FE19EE40197F1F700C00000F0CFF894BD
S10502C0FFCF6A
S11302C2536C6176652044657669636500526563A3
S10B02D265697665643A2000B9
S9030000FC
