:100000000C946B000C9488000C9488000C9488006D
:100010000C9488000C9488000C9488000C94880040
:100020000C9488000C9488000C9488000C94880030
:100030000C9488000C9488000C9488000C94880020
:100040000C9488000C9488000C9488000C94880010
:100050000C94880007634236B79BD8A71A396856B4
:1000600018AEBAAB558C1D3CB7CC5763BD6DEDFDDA
:10007000753EF6177231BF000000803F0800000097
:10008000BE922449123EABAAAA2ABECDCCCC4C3E8D
:1000900000000080BEABAAAAAA3E00000000BF007C
:1000A0000000803F0000000000084178D3BB438778
:1000B000D1133D190E3CC3BD4282AD2B3E68EC828C
:1000C00076BED98FE1A93E4C80EFFFBE01C4FF7F11
:1000D0003F000000000011241FBECFE5D8E0DEBFC6
:1000E000CDBF10E0A0E6B0E0EAE5FAE002C005907E
:1000F0000D92A037B107D9F720E0A0E7B0E001C02A
:100100001D92A237B207E1F70E9441010C942B0522
:100110000C940000643061F018F4613031F00EC0CE
:10012000603141F0603441F009C00898099806C078
:10013000089A09980898099A83E081B961B170E03A
:1001400080E090E00E94AB029B01AC0160E070E0B7
:1001500080E890E40E9439039B01AC010E949E015B
:100160009B01AC0160E070E080E892E40E940A022A
:100170000E947C0260B9089584EA86BF06B607FE35
:10018000FDCF81B1887F883071F463B984E886BF80
:1001900006B607FEFDCF81B1887F883131F080320D
:1001A00031F083E0089580E0089581E0089582E0D1
:1001B000089563B984E886BF06B607FEFDCF81B116
:1001C000887F883221F0803321F082E0089580E03A
:1001D000089581E0089584E986BF06B604FCFDCF4A
:1001E000089588B38F70962F907F892B88BBC09815
:1001F000C19A82E08A95F1F700C0C1988FE891E03A
:100200000197F1F700C0000088B38F7090E1699FFB
:10021000B0011124682B68BBC19A82E08A95F1F77E
:1002200000C0C1988FE99FE00197F1F700C000007E
:100230000895CF93DF93EC018FEF87BB8FE39CE9A9
:100240000197F1F700C0000062E0CE010E94F100CA
:1002500068E2CE010E94F1006CE0CE010E94F10044
:1002600066E0CE010E94F10061E0CE010E94F10043
:100270008FE99FE00197F1F700C00000DF91CF9177
:100280000895EF92FF921F93CF93DF93CDB7DEB720
:100290002F970FB6F894DEBF0FBECDBF8AE0E0E621
:1002A000F0E0DE01119601900D928A95E1F7FE01D2
:1002B0003B9685E0DF011D928A95E9F781E790E0A2
:1002C0000E94190160E480E790E00E948A0061E0EA
:1002D00080E790E00E94BC0062E080E790E00E942E
:1002E000D90010E0CE0101967C01F70101900020B9
:1002F000E9F73197EE19FF09812F90E08E179F07DC
:1003000050F4F701E10FF11D608180E790E00E9459
:10031000D9001F5FEACF80E790E00E94EB0080E009
:1003200090E02F960FB6F894DEBF0FBECDBFDF91E1
:10033000CF911F91FF90EF9008955058BB27AA27A7
:100340000E94B5010C94FF020E94F10238F00E9455
:10035000F80220F039F49F3F19F426F40C94EE02D1
:100360000EF4E095E7FB0C94E802E92F0E941003DD
:1003700058F3BA17620773078407950720F079F4DA
:10038000A6F50C9432030EF4E0950B2EBA2FA02D97
:100390000B01B90190010C01CA01A0011124FF2732
:1003A000591B99F0593F50F4503E68F11A16F0402D
:1003B000A22F232F342F4427585FF3CF469537952C
:1003C0002795A795F0405395C9F77EF41F16BA0BF1
:1003D000620B730B840BBAF09150A1F0FF0FBB1F9F
:1003E000661F771F881FC2F70EC0BA0F621F731FE8
:1003F000841F48F4879577956795B795F7959E3F45
:1004000008F0B0CF9395880F08F09927EE0F9795D5
:10041000879508950E941E020C94FF020E94F80224
:1004200058F00E94F10240F029F45F3F29F00C944B
:10043000E80251110C9433030C94EE020E94100355
:1004400068F39923B1F3552391F3951B550BBB2703
:10045000AA2762177307840738F09F5F5F4F220F48
:10046000331F441FAA1FA9F335D00E2E3AF0E0E83F
:1004700032D091505040E695001CCAF72BD0FE2F89
:1004800029D0660F771F881FBB1F2617370748071D
:10049000AB07B0E809F0BB0B802DBF01FF279358D5
:1004A0005F4F3AF09E3F510578F00C94E8020C94AF
:1004B00033035F3FE4F3983ED4F3869577956795D1
:1004C000B795F7959F5FC9F7880F911D969587950A
:1004D00097F90895E1E0660F771F881FBB1F621729
:1004E00073078407BA0720F0621B730B840BBA0BE7
:1004F000EE1F88F7E09508950E94180388F09F5733
:1005000098F0B92F9927B751B0F0E1F0660F771F37
:10051000881F991F1AF0BA95C9F714C0B13091F02D
:100520000E943203B1E008950C943203672F782FB4
:100530008827B85F39F0B93FCCF3869577956795F2
:10054000B395D9F73EF490958095709561957F4F5E
:100550008F4F9F4F0895E89409C097FB3EF4909504
:100560008095709561957F4F8F4F9F4F9923A9F08C
:10057000F92F96E9BB279395F6958795779567951B
:10058000B795F111F8CFFAF4BB0F11F460FF1BC05F
:100590006F5F7F4F8F4F9F4F16C0882311F096E9F2
:1005A00011C0772321F09EE8872F762F05C06623A0
:1005B00071F096E8862F70E060E02AF09A95660F59
:1005C000771F881FDAF7880F9695879597F9089512
:1005D00097F99F6780E870E060E008959FEF80ECF6
:1005E000089500240A941616170618060906089599
:1005F00000240A9412161306140605060895092EFF
:100600000394000C11F4882352F0BB0F40F4BF2B6D
:1006100011F460FF04C06F5F7F4F8F4F9F4F0895AD
:1006200057FD9058440F551F59F05F3F71F04795A3
:10063000880F97FB991F61F09F3F79F08795089588
:10064000121613061406551FF2CF4695F1DF08C0A7
:10065000161617061806991FF1CF869571056105C4
:1006600008940895E894BB2766277727CB0197F96C
:100670000895FA01EE0FFF1F309621053105A1F113
:100680006115710561F48038BFE39B0749F16894F7
:100690009038810561F08038BFEF9B0741F09923C6
:1006A0004AF5FF3FE1053105210519F1E894089469
:1006B000E795D901AA2329F4AB2FBE2FF85FD0F319
:1006C00010C0FF5F70F4A695E0F7F73950F019F00D
:1006D000FF3A38F49F779F930DD00F9007FC905806
:1006E000089546F00C94EE0260E070E080E89FE32D
:1006F00008954FE79F775F934F933F932F930E9407
:1007000034042F913F914F915F910E94B0040C945B
:10071000910329F416F00C94E8020C9432030C9423
:10072000EE020E941803A8F39638A0F707F80F927C
:10073000E8942BE33AEA48EB5FE70E94C6040F9285
:100740000F920F924DB75EB70F920E947C04E4E5C2
:10075000F0E00E94C3034F915F91EF91FF91E59507
:10076000EE1FFF1F49F0FE57E0684427EE0F441FBD
:10077000FA95E1F74195550B0E94F6030F9007FE9D
:100780000C94EA030895DF93CF931F930F93FF9286
:10079000EF92DF927B018C01689406C0DA2EEF01A4
:1007A0000E94C304FE01E894A591259135914591DD
:1007B0005591A6F3EF010E94B501FE019701A80132
:1007C000DA9469F7DF90EF90FF900F911F91CF912E
:1007D000DF9108959B01AC0160E070E080E89FE349
:1007E0000C940A020C94E8020C941D050E94180354
:1007F000D8F39923C9F3940F511DA3F3915050409E
:1008000094F059F0882332F0660F771F881F9150BB
:100810005040C1F79E3F51052CF7880F911D9695CA
:10082000879597F908955F3FACF0983E9CF0BB2701
:10083000869577956795B79508F4B1609395C1F75C
:10084000BB0F58F711F460FFE8CF6F5F7F4F8F4FFA
:100850009F4FE3CF0C94330316F00C941D050C94BA
:10086000EE0268940C94E8020E941803A8F39923FE
:10087000C1F3AEF3DF93CF931F930F93FF92C92F72
:10088000DD2788232AF02197660F771F881FDAF764
:1008900020E030E040E85FEB9FE3883920F0803EC5
:1008A00038F021968F770E949E01ECE7F0E004C0BB
:1008B0000E949E01E9EAF0E00E94C3038B01BE01A1
:1008C000EC01FB2E6F5771097595771F880B990BFB
:1008D0000E94AD0228E132E741E35FE30E94C304D6
:1008E000AF2D9801AE01FF900F911F91CF91DF9135
:1008F0000E94B5010C94FF02FA01DC01AA0FBB1F94
:100900009B01AC01BF5728F4222733274427507896
:1009100020C0B75190F4AB2F00244695379527950A
:10092000011CA395D2F3002071F0220F331F441F46
:10093000B395DAF30ED00C949D0161307105A0E8F7
:100940008A07B94630F49B01AC01662777278827D0
:100950009078309621F02083318342835383089529
:100960000E94C3040C94FF020E94F10238F00E941E
:10097000F80220F0952311F00C94E8020C94EE029A
:1009800011240C9433030E94100370F3959FC1F35C
:10099000950F50E0551F629FF001729FBB27F00D2D
:1009A000B11D639FAA27F00DB11DAA1F649F662782
:1009B000B00DA11D661F829F2227B00DA11D621FD1
:1009C000739FB00DA11D621F839FA00D611D221F8B
:1009D000749F3327A00D611D231F849F600D211D6F
:1009E000822F762F6A2F11249F5750409AF0F1F0F2
:1009F00088234AF0EE0FFF1FBB1F661F771F881F5B
:100A000091505040A9F79E3F510580F00C94E802A8
:100A10000C9433035F3FE4F3983ED4F386957795C7
:100A20006795B795F795E7959F5FC1F7FE2B880F00
:100A3000911D9695879597F908959F3F31F09150B4
:100A400020F4879577956795B795880F911D9695B2
:0A0A5000879597F90895F894FFCFF9
:100A5A004D696C6164204873680000000000000062
:00000001FF
