:100000000C9433000C9450000C9450000C9450004D
:100010000C9450000C9450000C9450000C94500020
:100020000C9450000C9450000C9450000C94500010
:100030000C9450000C9450000C9450000C94500000
:100040000C9450000C9450000C9450000C945000F0
:100050000C9450005F01190123012D01370141016A
:100060004B015501FF0411241FBECFE5D8E0DEBFD0
:10007000CDBF20E0A0E6B0E001C01D92A836B207D7
:10008000E1F710E0C3E3D0E004C02197FE010E9435
:100090000705C233D107C9F70E94D3040C94420567
:1000A0000C940000AF92BF92CF92DF92EF92FF923A
:1000B0000F931F93CF93DF936C01F62E642F59019A
:1000C000E80198012150310900E010E040E050E0E3
:1000D00080E690E00E94DE019E012A0D3B1D01E0BA
:1000E00010E0AE016F2D80E690E00E94DE0141E05D
:1000F00050E06E2D80E690E00E94C90220E030E0E2
:1001000043E050E06F2D80E690E00E9491038FE97C
:100110009FE00197F1F700C00000209709F4F7C0B5
:1001200020E030E080B390E0022E02C095958795E4
:100130000A94E2F780FD07C0C9010196D601159621
:100140009C938E9314972F5F3F4FC217D30751F79D
:10015000C3C080B390E0022E02C0959587950A94A3
:10016000E2F780FD05C0C9010496F60195838483FA
:100170002F5F3F4FC217D30761F7FAC080B390E0FB
:10018000022E02C0959587950A94E2F780FD07C07C
:10019000C9010796D60115969C938E9314972F5FED
:1001A0003F4F2C173D0750F321E030E045E050E091
:1001B0006F2D80E690E00E94910320E030E046E061
:1001C00050E06F2D80E690E00E949103EFE9FFE0A0
:1001D0003197F1F700C00000809907C08AE090E0F5
:1001E000D60115969C938E931497819903C0F601BE
:1001F00015821482829907C08BE090E0D601159693
:100200009C938E93149721E030E046E050E06F2DF0
:1002100080E690E00E949103D6011496ED91FC9146
:100220001597E830F10508F053C0E65DFF4F0C94D8
:10023000070521E030E041E050E061E480E690E035
:100240000E94910345C021E030E042E050E061E4CB
:1002500080E690E00E9491033BC021E030E043E063
:1002600050E061E480E690E00E94910331C021E01B
:1002700030E044E050E061E480E690E00E949103C9
:1002800027C021E030E045E050E061E480E690E006
:100290000E9491031DC021E030E046E050E061E49F
:1002A00080E690E00E94910313C021E030E047E037
:1002B00050E061E480E690E00E94910309C021E0F3
:1002C00030E040E050E061E480E690E00E9491037D
:1002D000F6018481958167C021E030E043E050E081
:1002E0006F2D80E690E00E94910320E030E044E032
:1002F00050E06F2D80E690E00E9491038FE99FE02F
:100300000197F1F700C0000020E030E022CF21E0AB
:1003100030E043E050E06F2D80E690E00E949103D2
:1003200020E030E044E050E06F2D80E690E00E9455
:100330009103AFE9BFE01197F1F700C0000021E0A1
:1003400030E044E050E06F2D80E690E00E949103A1
:1003500020E030E045E050E06F2D80E690E00E9424
:100360009103EFE9FFE03197F1F700C000001CCFE7
:1003700021E030E044E050E06F2D80E690E00E9404
:10038000910320E030E045E050E06F2D80E690E002
:100390000E9491038FE99FE00197F1F700C00000F0
:1003A00020E030E0EBCEDF91CF911F910F91FF90D5
:1003B000EF90DF90CF90BF90AF9008950F931F9371
:1003C000623409F442C018F4613441F0DFC0633490
:1003D00009F472C0643409F4A6C0D8C0011511052F
:1003E00059F00130110509F0D1C02417350708F480
:1003F000CDC0E1E0F0E007C02417350708F4C6C01F
:10040000E1E0F0E010C06AB3CF01042E02C0880F13
:10041000991F0A94E2F7862B8ABB4F5F5F4F241720
:10042000350788F7B3C09AB3BF01042E02C0660F28
:10043000771F0A94E2F7862F809589238ABB4F5F46
:100440005F4F2417350778F7A1C00115110559F042
:100450000130110509F09AC02417350708F496C039
:10046000E1E0F0E007C02417350708F48FC0E1E0B1
:10047000F0E010C067B3CF01042E02C0880F991FAF
:100480000A94E2F7862B87BB4F5F5F4F241735072F
:1004900088F77CC097B3BF01042E02C0660F771F98
:1004A0000A94E2F7862F8095892387BB4F5F5F4FC1
:1004B0002417350778F76AC00115110559F0013086
:1004C000110509F063C02417350708F45FC0E1E0A7
:1004D000F0E007C02417350708F458C0E1E0F0E069
:1004E00010C064B3CF01042E02C0880F991F0A9474
:1004F000E2F7862B84BB4F5F5F4F2417350788F7E1
:1005000045C094B3BF01042E02C0660F771F0A9442
:10051000E2F7862F8095892384BB4F5F5F4F2417B6
:10052000350778F733C00115110549F00130110581
:1005300069F52417350750F1E1E0F0E006C0241713
:10054000350720F1E1E0F0E010C061B3CF01042EE7
:1005500002C0880F991F0A94E2F7862B81BB4F5F78
:100560005F4F2417350788F711C091B3BF01042EE0
:1005700002C0660F771F0A94E2F7862F80958923C1
:1005800081BB4F5F5F4F2417350778F71F910F919D
:1005900008956234D1F118F4613441F00895633460
:1005A00009F462C0643409F48EC008954115510500
:1005B000B9F04130510509F0B3C080E090E061E04E
:1005C00070E04AB39B01082E02C0220F331F0A9429
:1005D000E2F7242B2ABB01968830910591F7089504
:1005E00080E090E061E070E03AB3AB01082E02C019
:1005F000440F551F0A94E2F7242F209523232ABB8A
:1006000001968830910581F7089541155105B9F09B
:100610004130510509F084C080E090E061E070E075
:1006200047B39B01082E02C0220F331F0A94E2F742
:10063000242B27BB01968830910591F7089580E01F
:1006400090E061E070E037B3AB01082E02C0440FC8
:10065000551F0A94E2F7242F2095232327BB0196E8
:100660008830910581F7089541155105B9F0413061
:10067000510509F055C080E090E061E070E044B3BE
:100680009B01082E02C0220F331F0A94E2F7242B8D
:1006900024BB01968830910591F7089580E090E0A1
:1006A00061E070E034B3AB01082E02C0440F551F67
:1006B0000A94E2F7242F2095232324BB0196883047
:1006C000910581F7089541155105B1F0413051056B
:1006D00039F580E090E061E070E041B39B01082EC5
:1006E00002C0220F331F0A94E2F7242B21BB01968C
:1006F0008830910591F7089580E090E061E070E026
:1007000031B3AB01082E02C0440F551F0A94E2F723
:10071000242F2095232321BB01968830910581F752
:100720000895623449F118F4613441F00895633456
:1007300009F440C0643409F45AC008952115310504
:1007400079F02130310509F06EC02BB381E090E0E3
:1007500002C0880F991F4A95E2F7822B8BBB089540
:100760002BB381E090E002C0880F991F4A95E2F711
:10077000809582238BBB08952115310579F02130B6
:10078000310509F050C028B381E090E002C0880F25
:10079000991F4A95E2F7822B88BB089528B381E020
:1007A00090E002C0880F991F4A95E2F78095822356
:1007B00088BB08952115310571F02130310599F577
:1007C00025B381E090E002C0880F991F4A95E2F7B7
:1007D000822B85BB089525B381E090E002C0880F8D
:1007E000991F4A95E2F78095822385BB08952115CC
:1007F000310571F021303105B1F422B381E090E090
:1008000002C0880F991F4A95E2F7822B82BB089598
:1008100022B381E090E002C0880F991F4A95E2F769
:100820008095822382BB089585B38F70962F907F29
:10083000892B85BBA898A99A82E08A95F1F700C018
:10084000A9988FE891E00197F1F700C0000085B307
:100850008F7090E1699FB0011124682B65BBA99A44
:1008600082E08A95F1F700C0A9988FE99FE001978F
:10087000F1F700C00000089585B38F70962F907F28
:10088000892B85BBA89AA99A82E08A95F1F700C0C6
:10089000A9988FE891E00197F1F700C0000085B3B7
:1008A0008F7090E1699FB0011124682B65BBA99AF4
:1008B00082E08A95F1F700C0A9988FE99FE001973F
:1008C000F1F700C000000895CF93DF93EC018FEFA4
:1008D00084BB8FE39CE90197F1F700C0000062E060
:1008E000CE010E94140468E2CE010E9414046CE060
:1008F000CE010E94140466E0CE010E94140461E05F
:10090000CE010E9414048FE99FE00197F1F700C027
:100910000000DF91CF910895EF92FF920F931F9304
:10092000CF93DF93FB016081662391F08F017C01FF
:100930000F5F1F4FC0E0D0E0C7010E943C0421962A
:100940008C2F9D2FF80161918F016111F5CF02C0AD
:1009500080E090E0DF91CF911F910F91FF90EF9099
:1009600008950F931F93CF93DF938C01E9016111D9
:1009700008C0403178F44F70642F60680E941404FE
:1009800009C0613039F4403128F44F70642F606C35
:100990000E941404BE01C8010E948C04DF91CF9113
:1009A0001F910F910895CF93DF93CDB7DEB72A97AC
:1009B0000FB6F894DEBF0FBECDBF81E690E00E9477
:1009C00064040F2EF1E4EF2EF02D03E010E024E09C
:1009D00030E044E464E482E690E00E9452004AE0A1
:1009E000BE016F5F7F4F0E940D059E012F5F3F4F3D
:1009F00040E060E081E690E00E94B104E2CFE2E6F0
:100A0000F0E081E080831182138212820895EE0F5C
:100A1000FF1F0590F491E02D0994BB274A3031F473
:100A2000992322F4BDE2909581959F4F0C9419056E
:100A3000BB27FB015527AA27880F991FAA1FA417B8
:100A400010F0A41B83955051B9F7A05DAA3308F0AC
:100A5000A95DA193009779F7B111B1931192CB01E0
:100A60000C943205DC01FC01672F71917723E1F7CB
:100A7000329704C07C916D9370836291AE17BF076B
:080A8000C8F30895F894FFCFBC
:00000001FF
