:100000000C9431000C944E000C944E000C944E0055
:100010000C944E000C944E000C944E000C944E0028
:100020000C944E000C944E000C944E000C944E0018
:100030000C944E000C944E000C944E000C944E0008
:100040000C944E000C944E000C944E000C944E00F8
:100050000C944E005B005E006100640067006A0063
:100060006D0011241FBECFE5D8E0DEBFCDBF10E08C
:10007000A0E6B0E0E2EDF4E002C005900D92A237F8
:10008000B107D9F720E0A2E7B0E001C01D92A53783
:10009000B207E1F70E94F8010C9467020C9400008B
:1000A000369A862F90E087309105C8F4FC01E65D12
:1000B000FF4F0C942C0281E886B911C082E886B902
:1000C0000EC083E886B90BC084E886B908C085E80D
:1000D00086B905C086E886B902C087E886B94111AD
:1000E00003C03E983F980895413019F43E9A3F98D6
:1000F0000895423011F43E9A3F9A0895CF93C42F49
:1001000020E030E082E790E00E94910087B1CF705C
:10011000C82BC7B980EC86B9349A84B195B1CF9118
:100120000895623449F118F4613441F0089563345C
:1001300009F440C0643409F45AC00895211531050A
:1001400079F02130310509F06EC02AB381E090E0EA
:1001500002C0880F991F4A95E2F7822B8ABB089547
:100160002AB381E090E002C0880F991F4A95E2F718
:10017000809582238ABB08952115310579F02130BD
:10018000310509F050C027B381E090E002C0880F2C
:10019000991F4A95E2F7822B87BB089527B381E028
:1001A00090E002C0880F991F4A95E2F7809582235C
:1001B00087BB08952115310571F02130310599F57E
:1001C00024B381E090E002C0880F991F4A95E2F7BE
:1001D000822B84BB089524B381E090E002C0880F95
:1001E000991F4A95E2F78095822384BB08952115D3
:1001F000310571F021303105B1F421B381E090E097
:1002000002C0880F991F4A95E2F7822B81BB08959F
:1002100021B381E090E002C0880F991F4A95E2F770
:100220008095822381BB089588B38F70962F907F2D
:10023000892B88BBC098C19A0000C19882E48A9536
:10024000F1F700C088B38F7090E1699FB00111246D
:10025000682B68BBC19A0000C19883EF91E00197B9
:10026000F1F700C00000089588B38F70962F907F3B
:10027000892B88BBC09AC19A0000C19882E48A95F4
:10028000F1F700C088B38F7090E1699FB00111242D
:10029000682B68BBC19A0000C19883EF91E0019779
:1002A000F1F700C000000895CF93DF93EC018FEFCA
:1002B00087BB87E893E10197F1F700C0000062E097
:1002C000CE010E94140168E2CE010E9414016CE08C
:1002D000CE010E94140166E0CE010E94140161E08B
:1002E000CE010E94140183EF91E00197F1F700C065
:1002F0000000DF91CF910895EF92FF920F931F932B
:10030000CF93DF93EB016881662369F07C0121962E
:1003100000E010E0C7010E9434010F5F1F4F699198
:100320006111F8CF02C000E010E0802FDF91CF9183
:100330001F910F91FF90EF9008950F931F93CF930C
:10034000DF93CDB7DEB7A1970FB6F894DEBF0FBE2F
:10035000CDBF8C01CB01413031F098F0423051F0EB
:100360004330B1F020C042E0BE016F5F7F4F0E947A
:10037000320219C048E0BE016F5F7F4F0E94320217
:1003800012C04AE0BE016F5F7F4F0E9432020BC075
:1003900040E1BE016F5F7F4F0E94320260E670E075
:1003A000C8010E947C01BE016F5F7F4FC8010E949F
:1003B0007C01A1960FB6F894DEBF0FBECDBFDF91D2
:1003C000CF911F910F910895611108C0403178F4C9
:1003D0004F70642F60680E9414010895613039F4F1
:1003E000403128F44F70642F606C0E94140108950E
:1003F00084E790E00E94540142E065E083E790E0EA
:100400000E94500063E670E084E790E00E947C0167
:1004100064E184E790E00E94140142E050E061E46E
:1004200083E790E00E947E00EC014DE060E084E70D
:1004300090E00E94E401BE017695679576956795F8
:1004400040E084E790E00E949D0160E770E084E76F
:1004500090E00E947C01DCCFEE0FFF1F0590F4912D
:10046000E02D0994BB274A3031F4992322F4BDE2F0
:10047000909581959F4F0C943E02BB27FB01552719
:10048000AA27880F991FAA1FA41710F0A41B8395F1
:100490005051B9F7A05DAA3308F0A95DA193009768
:1004A00079F7B111B1931192CB010C945702DC0191
:1004B000FC01672F71917723E1F7329704C07C919B
:1004C0006D9370836291AE17BF07C8F30895F894D7
:0204D000FFCF5C
:1004D20030780054656D70657261747572653A00AA
:0204E2002000F8
:00000001FF
