S00E0000454550524F4D2E737265634E
S11300000C942A000C9447000C9447000C9447006D
S11300100C9447000C9447000C9447000C94470040
S11300200C9447000C9447000C9447000C94470030
S11300300C9447000C9447000C9447000C94470020
S11300400C9447000C9447000C9447000C94470010
S11300500C94470011241FBECFE5D8E0DEBFCDBF0E
S113006010E0A0E6B0E0E6E8F2E002C005900D92F0
S1130070A037B107D9F720E0A0E7B0E001C01D9296
S1130080A137B207E1F70E94C6000C9441010C9419
S1130090000088B38F70962F907F892B88BBC098FF
S11300A0C19A0000C19882E48A95F1F700C088B330
S11300B08F7090E1699FB0011124682B68BBC19ACD
S11300C00000C19883EF91E00197F1F700C00000B0
S11300D0089588B38F70962F907F892B88BBC09A20
S11300E0C19A0000C19882E48A95F1F700C088B3F0
S11300F08F7090E1699FB0011124682B68BBC19A8D
S11301000000C19883EF91E00197F1F700C000006F
S11301100895CF93DF93EC018FEF87BB87E893E1DA
S11301200197F1F700C0000062E0CE010E9449008F
S113013068E2CE010E9449006CE0CE010E944900B1
S113014066E0CE010E94490061E0CE010E944900B0
S113015083EF91E00197F1F700C00000DF91CF91A8
S113016008950F931F93CF93DF93EB016881662368
S113017041F08C012196C8010E94690069916111C6
S1130180FACFDF91CF911F910F9108950F931F9391
S1130190CF93DF93CDB7DEB76E970FB6F894DEBF7B
S11301A00FBECDBF80E790E00E9489008FE0E0E6BB
S11301B0F0E0DE01509601900D928A95E1F7FE0180
S11301C031968FE0DF011D928A95E9F7E199FECF20
S11301D08E01005F1F4FF80101900020E9F731976D
S11301E0AF01401B510B60E070E0C8010E942A017E
S11301F0F80101900020E9F73197AF01401B510B42
S113020060E070E0CE0101960E941A01BE016F5FAA
S11302107F4F80E790E00E94B10080E090E06E960E
S11302200FB6F894DEBF0FBECDBFDF91CF911F9103
S11302300F910895DC01CB01FC01E199FECF06C0CA
S1130240FFBBEEBBE09A31960DB20D924150504087
S1130250B8F70895DC01CB0103C02D910E9435014C
S113026041505040D0F70895262FE199FECF9FBB0F
S11302708EBB2DBB0FB6F894E29AE19A0FBE01969D
S10902800895F894FFCF7D
S11302864D7920454550524F4D20546573740000F6
S9030000FC
