S022000045787465726E616C4861726477617265496E74657272757074732E7372656351
S11300000C942A000C94A6000C943C000C943C0024
S11300100C943C000C943C000C943C000C943C006C
S11300200C943C000C943C000C943C000C943C005C
S11300300C943C000C943C000C943C000C943C004C
S11300400C943C000C943C000C943C000C943C003C
S11300500C943C0011241FBECFE5D8E0DEBFCDBF19
S113006020E0A0E6B0E001C01D92A136B207E1F79E
S11300700E94BB000C94C6000C940000613051F146
S113008020F0623009F44FC05FC08A98929A8BB70F
S113009080648BBF413069F028F0423089F04330EE
S11300A0B1F052C085B78E7F85BF85B78D7F85BF80
S11300B04BC085B7816085BF85B78D7F85BF44C040
S11300C085B78E7F85BF85B7826085BF3DC083E0DD
S11300D085BF3AC08BB780688BBF8B98939A4130A9
S11300E069F028F0423089F04330B1F02DC085B773
S11300F08B7F85BF85B7877F85BF26C085B7846022
S113010085BF85B7877F85BF1FC085B78B7F85BFB8
S113011085B7886085BF18C085B7846085BF85B7FB
S1130120886085BF11C08BB780628BBFBA98C29AB2
S1130130423019F0433029F007C085B78F7B85BF63
S113014003C085B7806485BF7894FFCF1F920F9258
S11301500FB60F9211248F939F93D89A83ED90E357
S11301600197F1F700C000009F918F910F900FBE8F
S11301700F901F901895D09AD89841E060E080E6DF
S113018090E00E943E0080E090E00895F894FFCF54
S9030000FC
