:100000000C942A000C9447000C9447000C94470071
:100010000C9447000C9447000C9447000C94470044
:100020000C9447000C9447000C9447000C94470034
:100030000C9447000C9447000C9447000C94470024
:100040000C9447000C9447000C9447000C94470014
:100050000C94470011241FBECFE5D8E0DEBFCDBF12
:1000600010E0A0E6B0E0EAECF1E002C005900D92ED
:10007000AE36B107D9F720E0AEE6B0E001C01D9280
:10008000AF36B207E1F70E94D6000C94E3000C945F
:10009000000088B38F70962F907F892B88BBC09803
:1000A000C19A0000C19882E48A95F1F700C088B334
:1000B0008F7090E1699FB0011124682B68BBC19AD1
:1000C0000000C19883EF91E00197F1F700C00000B4
:1000D000089588B38F70962F907F892B88BBC09A24
:1000E000C19A0000C19882E48A95F1F700C088B3F4
:1000F0008F7090E1699FB0011124682B68BBC19A91
:100100000000C19883EF91E00197F1F700C0000073
:100110000895CF93DF93EC018FEF87BB87E893E1DE
:100120000197F1F700C0000062E0CE010E94490093
:1001300068E2CE010E9449006CE0CE010E944900B5
:1001400066E0CE010E94490061E0CE010E944900B4
:1001500083EF91E00197F1F700C00000DF91CF91AC
:100160000895EF92FF920F931F93CF93DF93FB01BC
:100170006081662391F08F017C010F5F1F4FC0E00B
:10018000D0E0C7010E94690021968C2F9D2FF801B5
:1001900061918F016111F5CF02C080E090E0DF91A5
:1001A000CF911F910F91FF90EF9008958EE690E010
:1001B0000E94890060E670E08EE690E00E94B10047
:0A01C00080E090E00895F894FFCF6E
:0E01CA004D617374657220697320476F640085
:00000001FF
