:100000000C942A000C9447000C9447000C94470071
:100010000C9447000C9447000C9447000C94470044
:100020000C9447000C9447000C9447000C94470034
:100030000C9447000C94D2000C9447000C94470099
:100040000C9447000C9447000C9447000C94470014
:100050000C94470011241FBECFE5D8E0DEBFCDBF12
:1000600010E0A0E6B0E0ECE6F3E002C005900D92EF
:10007000A036B107D9F720E0A0E6B0E001C01D929C
:10008000A236B207E1F70E9408010C94B4010C9467
:10009000000088B38F70962F907F892B88BBC09803
:1000A000C19A0000C19882E48A95F1F700C088B334
:1000B0008F7090E1699FB0011124682B68BBC19AD1
:1000C0000000C19883EF91E00197F1F700C00000B4
:1000D000089588B38F70962F907F892B88BBC09A24
:1000E000C19A0000C19882E48A95F1F700C088B3F4
:1000F0008F7090E1699FB0011124682B68BBC19A91
:100100000000C19883EF91E00197F1F700C0000073
:100110000895CF93DF93EC018FEF87BB87E893E1DE
:100120000197F1F700C0000062E0CE010E94490093
:1001300068E2CE010E9449006CE0CE010E944900B5
:1001400066E0CE010E94490061E0CE010E944900B4
:1001500083EF91E00197F1F700C00000DF91CF91AC
:100160000895EF92FF920F931F93CF93DF93EB01CC
:100170006881662369F07C01219600E010E0C701E8
:100180000E9469000F5F1F4F69916111F8CF02C093
:1001900000E010E0802FDF91CF911F910F91FF9031
:1001A000EF9008951F920F920FB60F9211242F9384
:1001B0003F934F935F936F937F938F939F93AF93EF
:1001C000BF93EF93FF93CF93DF931F92CDB7DEB72B
:1001D00081E690E00E948E018983BE016F5F7F4FB0
:1001E00080E690E00E94B1000F90DF91CF91FF91E7
:1001F000EF91BF91AF919F918F917F916F915F919F
:100200004F913F912F910F900FBE0F901F90189517
:10021000EE24E39408E024E040E060E875E281E643
:1002200090E00E94190180E690E00E948900789495
:10023000FFCFEF920F93233081F0243019F022305A
:1002400079F407C080B58F7E80BD80B58F7D80BD7D
:1002500007C080B5806280BD03C080B5806180BD6D
:10026000442331F0413039F480B5806480BD03C04F
:1002700080B58F7B80BDEE2011F0579A569A8AB1D7
:1002800088618AB980B5806880BD0730C9F028F4DC
:10029000053041F0063069F01FC00830C1F0093068
:1002A000C9F01AC080B58D7F80BD80B58B7F80BDC1
:1002B00013C080B5826080BD80B58B7F80BD0CC0CF
:1002C00080B5846080BD80B58D7F80BD05C086E02F
:1002D00080BD02C086E080BDCB01A0E0B0E0880F09
:1002E000991FAA1FBB1F880F991FAA1FBB1F9C0124
:1002F000AD01220F331F441F551F220F331F441F10
:10030000551F60E072E18AE790E00E94920121505F
:10031000310929B930BD0F91EF9008955F9BFECF51
:100320008CB10895A1E21A2EAA1BBB1BFD010DC0C2
:10033000AA1FBB1FEE1FFF1FA217B307E407F50795
:1003400020F0A21BB30BE40BF50B661F771F881F71
:10035000991F1A9469F760957095809590959B0107
:0C036000AC01BD01CF010895F894FFCF5F
:00000001FF
