:100000000C942A000C9434000C9434000C943400AA
:100010000C9434000C9434000C9434000C94340090
:100020000C9434000C9434000C9434000C94340080
:100030000C9434000C9434000C9434000C94340070
:100040000C9434000C9434000C9434000C94340060
:100050000C94340011241FBECFE5D8E0DEBFCDBF25
:100060000E943A000C9452000C94000089E683BF71
:10007000BB9A08950E94360021E030E081E090E0D4
:100080008F3F910511F0009719F4319521953109B1
:100090008CBF820F931FEFE7FEE33197F1F700C0AB
:0800A0000000EECFF894FFCF41
:00000001FF
