S0120000535049204D61737465722E737265639A
S11300000C9431000C944E000C944E000C944E0051
S11300100C944E000C944E000C944E000C944E0024
S11300200C944E000C944E000C944E000C944E0014
S11300300C944E000C944E000C944E000C944E0004
S11300400C944E000C944E000C944E000C944E00F4
S11300500C944E0044013401480138014C013C0128
S1130060400111241FBECFE5D4E0DEBFCDBF10E0B8
S1130070A0E6B0E0E8ECF2E002C005900D92AE38E4
S1130080B107D9F720E0AEE8B0E001C01D92A03975
S1130090B207E1F70E94ED000C9462010C94000099
S11300A082B38F70962F907F892B82BB9098919A00
S11300B00000919882E48A95F1F700C082B38F70B2
S11300C090E1699FB0011124682B62BB919A0000F2
S11300D0919883EF91E00197F1F700C00000089533
S11300E082B38F70962F907F892B82BB909A919ABE
S11300F00000919882E48A95F1F700C082B38F7072
S113010090E1699FB0011124682B62BB919A0000B1
S1130110919883EF91E00197F1F700C000000895F2
S1130120CF93DF93EC018FEF81BB87E893E10197D5
S1130130F1F700C0000062E0CE010E94500068E2C6
S1130140CE010E9450006CE0CE010E94500066E097
S1130150CE010E94500061E0CE010E94500083EF66
S113016091E00197F1F700C00000DF91CF9108956D
S1130170EF92FF920F931F93CF93DF93EB0168816C
S1130180662369F07C01219600E010E0C7010E941B
S113019070000F5F1F4F69916111F8CF02C000E03A
S11301A010E0802FDF91CF911F910F91FF90EF907E
S11301B00895611108C0403178F44F70642F60686D
S11301C00E9450000895613039F4403128F44F7092
S11301D0642F606C0E94500008958FE890E00E94A4
S11301E0900065E08EE890E00E942A0160E670E0ED
S11301F08FE890E00E94B80060EC8FE890E00E94E5
S113020050006EE670E08FE890E00E94B800C1E60E
S11302106C2F8EE890E00E94570163E870E08FE84D
S113022090E00E94B80045E0480F61E08FE890E05C
S11302300E94D9006C2F8FE890E00E947000CF5F7D
S11302402FE986E891E0215080409040E1F700C01A
S11302500000DECF862F90E08730910500F5FC0189
S1130260E65DFF4F0C945C0168986998709817C01C
S1130270689A6998709813C06898699A70980FC0C2
S113028083E08DB970980BC068986998709A07C01C
S1130290689A6998709A03C06898699A709A80EB12
S11302A087BBBE98C49A80E58DB9C49808956FB988
S11302B0779BFECF8FB10895EE0FFF1F0590F49149
S10B02C0E02D0994F894FFCF2E
S11302C84D6173746572204465766963650053658E
S11302D86E7420446174613A20202020202020205C
S11102E820200053656E7420446174613A0056
S9030000FC
