S014000054696D6572436F756E7465722E737265632F
S11300000C9444000C9461000C9461000C94610005
S11300100C9461000C9461000C9461000C946100D8
S11300200C9461000C9461000C9461000C946100C8
S11300300C9461000C9461000C9461000C946100B8
S11300400C9461000C9461000C9461000C946100A8
S11300500C946100040217024D024D024D024D0240
S11300604D024D024D024D024D024D024D024D0214
S11300704D024D024D024D024D02E9014D02D301E4
S1130080DE01F7012A023C0211241FBECFE5D8E0AD
S1130090DEBFCDBF10E0A0E6B0E0EEEBF6E002C0BC
S11300A005900D92A036B107D9F720E0A0E6B0E0A4
S11300B001C01D92A136B207E1F70E9463000C94BF
S11300C05D030C9400008F92AF92CF92DF92EF9277
S11300D0FF920F931F93812CA12CC12CD12CE12CC6
S11300E0F12C00E014E02BE040E06FE080E690E0CB
S11300F00E94850080E090E01F910F91FF90EF90A7
S1130100DF90CF90AF908F9008958F92AF92BF926F
S1130110CF92DF92EF92FF920F931F93CF93DF93CF
S1130120CDB7DEB7B42E603109F48CC0613109F467
S1130130CDC16F3009F05FC2BB9A0034110589F05C
S113014020F40830110549F015C0011581E01807A5
S113015059F00115144061F00DC083B7826083BF6C
S113016009C083E083BF06C083B7846083BF02C035
S113017085E083BF2C30D9F028F42430A1F02B3053
S113018071F01EC02331B1F02431B9F02231C1F431
S113019083B78F7E83BF83B78F7D83BF11C083B73F
S11301A0806183BF0DC083B7806283BF09C080E3D1
S11301B083BF06C080E383BF03C083B7806283BF6D
S11301C081E0B81691F0B81638F095E0B916E1F070
S11301D08EE0B816A9F028C0E2BECCBE08B600FE78
S11301E0FDCF88B7816088BF1FC0CCBE83B788604D
S11301F083BF08B601FEFDCF88B7826088BF14C0F4
S113020083B7806483BF10C088E483BFDC2CCC2414
S113021096013695279536952795ABE7B4E10E946C
S11302202C03969587958CBFAA2021F0789489B7E2
S1130230816089BF882009F4DEC1789489B782601F
S113024089BFD9C1842F8D7F853131F09AE1491757
S113025019F09DE0491302C08D9A0BC098EE940FDB
S1130260923030F09BE1491719F096E1491301C02F
S11302708C9A00341105C1F038F40130110561F095
S11302800830110569F019C0011591E0190779F0DA
S11302900115144081F011C09EB591609EBD0DC042
S11302A09EB592609EBD09C093E09EBD06C09EB5FA
S11302B094609EBD02C095E09EBD2C30E1F128F40F
S11302C0243041F12B30B9F062C0233109F445C028
S11302D0243109F44EC0223109F059C08FB58F7E04
S11302E08FBD8FB58F7D8FBD8FB58F7B8FBD8FB544
S11302F08F778FBD4CC0853121F48FB580648FBD5D
S113030046C088EE8B0D823008F041C08FB5806105
S11303108FBD3DC0853119F08DE0B81204C08FB592
S113032080688FBD34C088EE8B0D823080F58FB528
S113033080628FBD2CC0853119F09DE0B91203C0D5
S113034080EC8FBD24C088EE8B0D823018F086E1DE
S1130350B8121DC080E38FBD1AC09AE1B91203C060
S113036080EC8FBD77C08BE1B81211C080E38FBDE4
S113037083C09AE1B91204C08FB580688FBD6AC08A
S11303808BE1B81204C08FB580628FBD75C08B2D10
S113039090E0FC013297EA31F10508F07EC0E65D99
S11303A0FF4F0C942603FDBCECBCDBBCCABC08B6F6
S11303B002FEFDCF88B7846088BF6FC0FDBCECBC73
S11303C0D9BCC8BC08B602FEFDCF88B7846088BF1C
S11303D064C0FDBCECBCDBBCCABC8EB588608EBD01
S11303E008B604FEFDCF88B7806188BF56C0FDBC47
S11303F0ECBCD9BCC8BC88E08EBD08B603FEFDCFFA
S113040088B7886088BF49C083E08FBD8EB580619E
S11304108EBDC601A0E0B0E07727662724E630E071
S113042040E050E00E9407033BBD2ABD36C083E094
S11304308FBD8EB580618EBDC601A0E0B0E0772788
S1130440662724E630E040E050E00E94070339BD0F
S113045028BD23C083E08FBD88E18EBDC601A0E026
S1130460B0E07727662724E630E040E050E00E94C1
S113047007033BBD2ABD11C083E08FBD88E18EBD5B
S1130480C601A0E0B0E07727662724E630E040E02C
S113049050E00E94070339BD28BDAA2021F07894BA
S11304A089B7846089BF882009F4A5C0789495E150
S11304B0B91621F089E1B81629F09DC089B7806189
S11304C089BF99C089B7886089BF95C08F9A003465
S11304D01105C1F038F40130110561F0083011053F
S11304E069F019C0011591E0190779F0011514405C
S11304F081F011C085B5816085BD0DC085B5826070
S113050085BD09C083E085BD06C085B5846085BD11
S113051002C085E085BD2C3009F128F42430B9F0FF
S11305202B3071F027C02331E1F02431E9F022317E
S113053009F585B58F7E85BD85B58F7D85BD1AC0CE
S113054085B5806185BD85B58F7D85BD13C085B5B5
S11305508F7E85BD85B5806285BD0CC080E385BD79
S113056009C080E385BD06C085B5806285BD85B5BB
S11305708F7E85BD91E0B91691F0B91638F085E00B
S1130580B816E9F09EE0B916B1F029C0E4BCC3BCCA
S113059008B606FEFDCF88B7806488BF20C0E4BCDF
S11305A0C3BC85B5886085BD08B607FEFDCF88B796
S11305B0806888BF14C085B5806485BD10C088E498
S11305C085BDDC2CCC249601369527953695279548
S11305D0ABE7B4E10E942C039695879583BDAA20CE
S11305E021F0789489B7806489BF882021F07894B9
S11305F089B7806889BFDF91CF911F910F91FF90D8
S1130600EF90DF90CF90BF90AF908F900895052E1C
S113061097FB1EF400940E941E0357FD07D00E940E
S11306203B0307FC03D04EF40C941E0350954095F5
S1130630309521953F4F4F4F5F4F0895909580958A
S1130640709561957F4F8F4F9F4F0895EE0FFF1F59
S11306500590F491E02D0994A29FB001B39FC001CD
S1130660A39F700D811D1124911DB29F700D811DDA
S11306701124911D0895A1E21A2EAA1BBB1BFD0192
S11306800DC0AA1FBB1FEE1FFF1FA217B307E4076D
S1130690F50720F0A21BB30BE40BF50B661F771FC5
S11306A0881F991F1A9469F76095709580959095A5
S11106B09B01AC01BD01CF010895F894FFCF6A
S9030000FC
