:100000000C942A020C9447020C9447020C94470269
:100010000C9447020C9447020C9447020C9447023C
:100020000C9447020C9447020C9447020C9447022C
:100030000C9447020C9447020C9447020C9447021C
:100040000C9447020C9447020C9447020C9447020C
:100050000C944702000000000000000000000000B7
:100060000000000000000000000000000080C0E070
:10007000E0F0F8FCFCFEF8C080800000000000000A
:1000800000000000000000000000008000000000F0
:1000900000000000000000000000000000800000E0
:1000A00000000000000000000000000000000080D0
:1000B00080C0F8FEFCFCF8F0E0E0C080000000002A
:1000C0000000000000000000000000000000000030
:1000D0000000000000000000000000000000000020
:1000E000000000000080C0E0F0F8FCFEFFFFFFFF12
:1000F000FFFFFFFFFFFFFFFFFFFFFF7F3F1E1E1EF3
:100100001C1C1C18181818180808080F0F0E0E0EC3
:100110000E0E0E0E0E0E0E0E1E1E1E1E1F1F181889
:100120001818989898989C9C9C1E1E1E3F7FFFFF55
:10013000FFFFFFFFFFFFFFFFFFFFFFFFFFFEFCF8DA
:10014000F0E0C0800000000000000000000000009F
:10015000000000000000000000000000000000009F
:1001600080E0F0FCFEFFFFFFFFFFFFFFFFFFFFFF50
:10017000FFFFFF7F3F1F0F87E3F1381C06030100DD
:100180000000000000003C7C7EFEFEFFFFFFFFFF42
:10019000FFFFFFFFFFFFFFFFFFFFFFFFFFFFFFFF6F
:1001A000FEFEFEFCFCFDF9FBF3E3E3C0C08008317A
:1001B000E3870F1F3F7FFFFFFFFFFFFFFFFFFFFFF3
:1001C000FFFFFFFFFEFCF0E08000000000000000E9
:1001D000000000000000000000000000C0F0FCFE75
:1001E000FFFFFFFFFFFFFFFFFFFFFFFFFFFFFFFF1F
:1001F000CF030130FCFEFF3F0300000000000000C1
:1002000000000000000000000000000000000000EE
:1002100000000000000001010101010101010101D4
:1002200001030303030707070F1F1F3F7FFFFFFEA5
:10023000FCF9E7CE18300183CFFFFFFFFFFFFFFF80
:10024000FFFFFFFFFFFFFFFFFFFEFCF0C00000000D
:10025000000000000000000080F0FCFFFFFFFFFF37
:10026000FFFFFFFFFFFFFFFFFFFFFFFFFFFFFFFF9E
:10027000FFFFFEFCF8F1E3C00000000000000000FA
:10028000000000000000000000000000000000006E
:10029000000000000000000000000000000000005E
:1002A000000000000000000000000000000001034A
:1002B0000FC7E1F0F8FCFEFFFFFFFFFFFFFFFFFFAE
:1002C000FFFFFFFFFFFFFFFFFFFFFFFFFFFFFCF050
:1002D000800000000000C0FCFFFFFFFFFFFFFFFFEA
:1002E000FFFFFF7F7F7F7F3F3F7FFFFFFF7F3F1F3E
:1002F0001F1F1F1F1F0F0F0F0F1E1C387060C2C65D
:100300008C1C3C7CF8F8F8F8F8F0F0F0F0F0F0F025
:10031000F0F0F0F0F0F0F0F0F0F0F0F0E0E0C0C05D
:10032000800000000000000080C0C06070381C1E0B
:100330000F0F0F0F1F1F1F1F1F1F3F7FFFFFFF7F8D
:100340003F3F7F7F7F7FFFFFFFFFFFFFFFFFFFFF3D
:10035000FFFCC00000FC7F3F0F0707030101010005
:10036000000000000000000000000001010000008B
:10037000000000000000000000000000000000017C
:100380000303060C18102143038307070F8F8F8F79
:100390008F9F9F9F9F9F8F8F8F8F8F0F0707038345
:1003A00001402010180C06030301000000000000AB
:1003B000000000000000000000000000010100003B
:1003C0000000000000000000000001010103070719
:1003D0000F3F7FFC00010000000000000000000053
:1003E000000000000000000000000000000000000D
:1003F00000000000000000000000000000000000FD
:1004000000000000000000000000010200000101E7
:1004100003070F1F1F1F0F07030100000002010049
:1004200000000000000000000000000000000000CC
:1004300000000000000000000000000000000000BC
:1004400000000000000000000000000000000000AC
:100450000000000111241FBECFE5D8E0DEBFCDBFF4
:1004600010E0A0E6B0E0E4E3F8E002C005900D92F1
:10047000A036B107D9F720E0A0E6B0E001C01D9298
:10048000A136B207E1F70E941C030C9418040C94E7
:1004900000006BBBA898A998AA9A8DE08A95F1F7FD
:1004A0000000AA988DE08A95F1F7000008956BBBD3
:1004B000A89AA998AA9A8DE08A95F1F70000AA98BF
:1004C0008DE08A95F1F700000895CF93DF93EC015A
:1004D0008FEF8ABB84BB85B3886385BB8FE39CE9C0
:1004E0000197F1F700C000006EE3CE010E944902BF
:1004F00060E4CE010E94490268EBCE010E944902ED
:1005000060ECCE010E9449026FE3CE010E944902D5
:10051000DF91CF910895FF920F931F93CF93DF93B5
:100520008C0185B3886185BB0F2EF8EBFF2EF02D73
:100530006F2DC8010E944902C0E4D0E060E0C8010C
:100540000E9457022197D1F7F39480ECF812F0CF74
:1005500060E4C8010E94490268EBC8010E94490298
:10056000DF91CF911F910F91FF9008956F927F922D
:100570008F929F92AF92BF92CF92DF92EF92FF92B3
:100580000F931F93CF93DF937C01AB9AAC98EB0151
:100590006B018CEFD81A0F2E812C912CA12CFFE32C
:1005A000BF2EF02D6894662463F86894772474F85D
:1005B0008E01005C1F4FFE016491C7010E9457022B
:1005C0002196C017D107B9F785B3862585BB85B3BA
:1005D000872585BB20E030E048E353E4C501B40142
:1005E0000E942C030E949803C7010E94490220E048
:1005F00030E040E05FE3C501B4010E942C034B01F1
:100600005C01E8010C151D0599F660E4C7010E9424
:10061000490268EBC7010E944902DF91CF911F9107
:100620000F91FF90EF90DF90CF90BF90AF909F9091
:100630008F907F906F90089580E690E00E94650211
:1006400080E690E00E948B0264E570E080E690E036
:100650000E94B602FFCF5058BB27AA270E9443032F
:100660000C94DE030E94D00338F00E94D70320F0E0
:1006700039F49F3F19F426F40C94CD030EF4E09561
:10068000E7FB0C94C703E92F0E94EF0358F3BA1756
:10069000620773078407950720F079F4A6F50C9498
:1006A00011040EF4E0950B2EBA2FA02D0B01B90109
:1006B00090010C01CA01A0011124FF27591B99F0D8
:1006C000593F50F4503E68F11A16F040A22F232FE4
:1006D000342F4427585FF3CF469537952795A79534
:1006E000F0405395C9F77EF41F16BA0B620B730BDB
:1006F000840BBAF09150A1F0FF0FBB1F661F771F4C
:10070000881FC2F70EC0BA0F621F731F841F48F400
:10071000879577956795B795F7959E3F08F0B0CF89
:100720009395880F08F09927EE0F97958795089570
:100730000E94F70388F09F5798F0B92F9927B75177
:10074000B0F0E1F0660F771F881F991F1AF0BA9575
:10075000C9F714C0B13091F00E941104B1E00895BE
:100760000C941104672F782F8827B85F39F0B93FB0
:10077000CCF3869577956795B395D9F73EF4909528
:100780008095709561957F4F8F4F9F4F089597F992
:100790009F6780E870E060E008959FEF80EC089527
:1007A00000240A9416161706180609060895002450
:1007B0000A9412161306140605060895092E0394CA
:1007C000000C11F4882352F0BB0F40F4BF2B11F43E
:1007D00060FF04C06F5F7F4F8F4F9F4F089557FD9D
:1007E0009058440F551F59F05F3F71F04795880F9F
:1007F00097FB991F61F09F3F79F087950895121636
:1008000013061406551FF2CF4695F1DF08C01616E1
:1008100017061806991FF1CF869571056105089492
:100820000895E894BB2766277727CB0197F90895A9
:04083000F894FFCF6A
:00000001FF
